{
  "contractName": "Donation",
  "abi": [
    {
      "inputs": [],
      "stateMutability": "nonpayable",
      "type": "constructor"
    },
    {
      "inputs": [],
      "name": "donatur",
      "outputs": [
        {
          "internalType": "address",
          "name": "",
          "type": "address"
        }
      ],
      "stateMutability": "view",
      "type": "function",
      "constant": true
    },
    {
      "inputs": [],
      "name": "money",
      "outputs": [
        {
          "internalType": "uint256",
          "name": "",
          "type": "uint256"
        }
      ],
      "stateMutability": "view",
      "type": "function",
      "constant": true
    },
    {
      "inputs": [],
      "name": "useless_variable",
      "outputs": [
        {
          "internalType": "string",
          "name": "",
          "type": "string"
        }
      ],
      "stateMutability": "view",
      "type": "function",
      "constant": true
    },
    {
      "inputs": [
        {
          "internalType": "string",
          "name": "param",
          "type": "string"
        }
      ],
      "name": "change_useless_variable",
      "outputs": [],
      "stateMutability": "nonpayable",
      "type": "function"
    },
    {
      "inputs": [],
      "name": "donate",
      "outputs": [],
      "stateMutability": "payable",
      "type": "function",
      "payable": true
    },
    {
      "inputs": [],
      "name": "recceive_donation",
      "outputs": [],
      "stateMutability": "nonpayable",
      "type": "function"
    }
  ],
  "bytecode": "0x60806040523480156200001157600080fd5b5033600160006101000a81548173ffffffffffffffffffffffffffffffffffffffff021916908373ffffffffffffffffffffffffffffffffffffffff1602179055506040518060400160405280600f81526020017f446f6e6174696f6e20737472696e670000000000000000000000000000000000815250600390816200009991906200031a565b5062000401565b600081519050919050565b7f4e487b7100000000000000000000000000000000000000000000000000000000600052604160045260246000fd5b7f4e487b7100000000000000000000000000000000000000000000000000000000600052602260045260246000fd5b600060028204905060018216806200012257607f821691505b602082108103620001385762000137620000da565b5b50919050565b60008190508160005260206000209050919050565b60006020601f8301049050919050565b600082821b905092915050565b600060088302620001a27fffffffffffffffffffffffffffffffffffffffffffffffffffffffffffffffff8262000163565b620001ae868362000163565b95508019841693508086168417925050509392505050565b6000819050919050565b6000819050919050565b6000620001fb620001f5620001ef84620001c6565b620001d0565b620001c6565b9050919050565b6000819050919050565b6200021783620001da565b6200022f620002268262000202565b84845462000170565b825550505050565b600090565b6200024662000237565b620002538184846200020c565b505050565b5b818110156200027b576200026f6000826200023c565b60018101905062000259565b5050565b601f821115620002ca5762000294816200013e565b6200029f8462000153565b81016020851015620002af578190505b620002c7620002be8562000153565b83018262000258565b50505b505050565b600082821c905092915050565b6000620002ef60001984600802620002cf565b1980831691505092915050565b60006200030a8383620002dc565b9150826002028217905092915050565b6200032582620000a0565b67ffffffffffffffff811115620003415762000340620000ab565b5b6200034d825462000109565b6200035a8282856200027f565b600060209050601f8311600181146200039257600084156200037d578287015190505b620003898582620002fc565b865550620003f9565b601f198416620003a2866200013e565b60005b82811015620003cc57848901518255600182019150602085019450602081019050620003a5565b86831015620003ec5784890151620003e8601f891682620002dc565b8355505b6001600288020188555050505b505050505050565b61088c80620004116000396000f3fe6080604052600436106100555760003560e01c8063173b30101461005a5780634ddd108a14610085578063620205c5146100b05780639afa0625146100d9578063ed88c68e14610104578063ff934d491461010e575b600080fd5b34801561006657600080fd5b5061006f610125565b60405161007c91906102e5565b60405180910390f35b34801561009157600080fd5b5061009a610149565b6040516100a79190610319565b60405180910390f35b3480156100bc57600080fd5b506100d760048036038101906100d2919061048e565b61014f565b005b3480156100e557600080fd5b506100ee610162565b6040516100fb9190610556565b60405180910390f35b61010c6101f0565b005b34801561011a57600080fd5b50610123610239565b005b60008054906101000a900473ffffffffffffffffffffffffffffffffffffffff1681565b60025481565b806003908161015e9190610784565b5050565b6003805461016f906105a7565b80601f016020809104026020016040519081016040528092919081815260200182805461019b906105a7565b80156101e85780601f106101bd576101008083540402835291602001916101e8565b820191906000526020600020905b8154815290600101906020018083116101cb57829003601f168201915b505050505081565b336000806101000a81548173ffffffffffffffffffffffffffffffffffffffff021916908373ffffffffffffffffffffffffffffffffffffffff16021790555034600281905550565b600160009054906101000a900473ffffffffffffffffffffffffffffffffffffffff1673ffffffffffffffffffffffffffffffffffffffff166108fc479081150290604051600060405180830381858888f193505050501580156102a1573d6000803e3d6000fd5b50565b600073ffffffffffffffffffffffffffffffffffffffff82169050919050565b60006102cf826102a4565b9050919050565b6102df816102c4565b82525050565b60006020820190506102fa60008301846102d6565b92915050565b6000819050919050565b61031381610300565b82525050565b600060208201905061032e600083018461030a565b92915050565b6000604051905090565b600080fd5b600080fd5b600080fd5b600080fd5b6000601f19601f8301169050919050565b7f4e487b7100000000000000000000000000000000000000000000000000000000600052604160045260246000fd5b61039b82610352565b810181811067ffffffffffffffff821117156103ba576103b9610363565b5b80604052505050565b60006103cd610334565b90506103d98282610392565b919050565b600067ffffffffffffffff8211156103f9576103f8610363565b5b61040282610352565b9050602081019050919050565b82818337600083830152505050565b600061043161042c846103de565b6103c3565b90508281526020810184848401111561044d5761044c61034d565b5b61045884828561040f565b509392505050565b600082601f83011261047557610474610348565b5b813561048584826020860161041e565b91505092915050565b6000602082840312156104a4576104a361033e565b5b600082013567ffffffffffffffff8111156104c2576104c1610343565b5b6104ce84828501610460565b91505092915050565b600081519050919050565b600082825260208201905092915050565b60005b838110156105115780820151818401526020810190506104f6565b60008484015250505050565b6000610528826104d7565b61053281856104e2565b93506105428185602086016104f3565b61054b81610352565b840191505092915050565b60006020820190508181036000830152610570818461051d565b905092915050565b7f4e487b7100000000000000000000000000000000000000000000000000000000600052602260045260246000fd5b600060028204905060018216806105bf57607f821691505b6020821081036105d2576105d1610578565b5b50919050565b60008190508160005260206000209050919050565b60006020601f8301049050919050565b600082821b905092915050565b60006008830261063a7fffffffffffffffffffffffffffffffffffffffffffffffffffffffffffffffff826105fd565b61064486836105fd565b95508019841693508086168417925050509392505050565b6000819050919050565b600061068161067c61067784610300565b61065c565b610300565b9050919050565b6000819050919050565b61069b83610666565b6106af6106a782610688565b84845461060a565b825550505050565b600090565b6106c46106b7565b6106cf818484610692565b505050565b5b818110156106f3576106e86000826106bc565b6001810190506106d5565b5050565b601f82111561073857610709816105d8565b610712846105ed565b81016020851015610721578190505b61073561072d856105ed565b8301826106d4565b50505b505050565b600082821c905092915050565b600061075b6000198460080261073d565b1980831691505092915050565b6000610774838361074a565b9150826002028217905092915050565b61078d826104d7565b67ffffffffffffffff8111156107a6576107a5610363565b5b6107b082546105a7565b6107bb8282856106f7565b600060209050601f8311600181146107ee57600084156107dc578287015190505b6107e68582610768565b86555061084e565b601f1984166107fc866105d8565b60005b82811015610824578489015182556001820191506020850194506020810190506107ff565b86831015610841578489015161083d601f89168261074a565b8355505b6001600288020188555050505b50505050505056fea264697066735822122013408240c50db2aea65a68002443eda4e2e28d21a259f99b663c9b91316400b964736f6c63430008110033",
  "immutableReferences": {},
  "source": "// SPDX-License-Identifier: MIT\n\npragma solidity ^0.8.8;\n\ncontract Donation {\n    address public donatur;\n    address payable donatee;\n    uint256 public money;\n    string public useless_variable;\n\n    constructor() public {\n        donatee = payable(msg.sender);\n        useless_variable = \"Donation string\";\n    }\n\n    function change_useless_variable(string memory param) public {\n        useless_variable = param;\n    }\n\n    function donate() public payable {\n        donatur = msg.sender;\n        money = msg.value;\n    }\n\n    function recceive_donation() public {\n        donatee.transfer(address(this).balance);\n    }\n}\n",
  "sourcePath": "/home/hamdi/blockchain/blockchain_for_python_developers/chapter2_smart_contract/my_first_smart_contract/contracts/Donation.sol",
  "compiler": {
    "name": "solc",
    "version": "0.8.17+commit.8df45f5f.Emscripten.clang"
  },
  "schemaVersion": "3.4.10",
  "updatedAt": "2022-10-19T09:33:36.891Z",
  "networkType": "ethereum",
  "devdoc": {
    "kind": "dev",
    "methods": {},
    "version": 1
  },
  "userdoc": {
    "kind": "user",
    "methods": {},
    "version": 1
  }
}